:020000040800F2
:100000000050002069270008C5250008CD250008FC
:10001000D5250008DD250008E525000800000000C2
:10002000000000000000000000000000ED250008B6
:10003000F925000800000000052600081126000828
:10004000B1270008B1270008B1270008B127000830
:10005000B1270008B1270008B1270008B127000820
:10006000B1270008B1270008B1270008B127000810
:10007000B1270008B1270008B1270008B127000800
:10008000B1270008B1270008B1270008B1270008F0
:10009000B1270008B1270008B1270008B1270008E0
:1000A000B1270008B1270008B1270008B1270008D0
:1000B0001D260008B1270008B1270008B127000855
:1000C000B1270008B1270008B1270008B1270008B0
:1000D000B1270008B1270008B1270008B1270008A0
:1000E000B1270008B1270008B12700080000000070
:1000F0000000000000000000000000000000000000
:0C01000000000000000000005FF808F1A3
:10010C000348044B834202D0034B03B1184770479A
:10011C000C0000200C000020000000000548064BDD
:10012C001B1AD90F01EBA301491002D0034B03B1E9
:10013C00184770470C0000200C0000200000000045
:10014C0010B5064C237843B9FFF7DAFF044B13B113
:10015C000448AFF300800123237010BD0C00002075
:10016C00000000000C28000808B5054B1BB1054920
:10017C000548AFF30080BDE80840FFF7CFBF00BFD4
:10018C0000000000100000200C28000880B400AF14
:10019C0000BFBD4680BC704780B584B000AF7860AE
:1001AC007B68002B01D1012368E07B681B68354A12
:1001BC00934203D0AF21344802F0C1F97B685B68ED
:1001CC00002B1BD07B685B68012B17D07B685B68AE
:1001DC00022B13D07B685B68032B0FD07B685B68AA
:1001EC00042B0BD07B685B68052B07D07B685B68A6
:1001FC00062B03D0B021244802F0A1F97B689B6840
:10020C00B3F5805F03D3B1211F4802F098F97B68E6
:10021C001B684CF6CC421A607B681B6845F2555241
:10022C001A607B681B687A6852685A607B681B6826
:10023C007A6892689A6000F081F8F86011E000F03A
:10024C007DF80246FB68D31A41F23C32934208D93E
:10025C007B681B68DB6803F00303002B01D00323CE
:10026C000CE07B681B68DB6803F00303002BE6D112
:10027C007B681B684AF6AA221A60002318461037BE
:10028C00BD4680BD003000402428000880B500AF7A
:10029C00084B1B68074A43F010031360032001F05E
:1002AC002DF90F2000F008F802F054F9002318463D
:1002BC0080BD00BF0020024080B582B000AF7860E6
:1002CC00124B1A68124B1B7819464FF47A73B3FB16
:1002DC00F1F3B2FBF3F3184601F074F90346002B6B
:1002EC0001D001230EE07B680F2B0AD8002279681D
:1002FC004FF0FF3001F022F9064A7B6813600023AF
:10030C0000E0012318460837BD4680BD00000020E0
:10031C00080000200400002080B400AF054B1B78BF
:10032C001A46054B1B681344034A136000BFBD46B5
:10033C0080BC7047080000202800002080B400AF6B
:10034C00024B1B681846BD4680BC70472800002035
:10035C0080B586B000AF78607B68002B01D101239B
:10036C005AE37B681B68002B1CD07B681B6803F06E
:10037C000103002B16D17B681B6803F00203002BD2
:10038C0010D17B681B6803F00803002B0AD17B6833
:10039C001B6803F00403002B04D140F265118F4855
:1003AC0002F0CDF87B681B6803F00103002B00F012
:1003BC009A807B685B68002B0ED07B685B68B3F51A
:1003CC00803F09D07B685B68B3F5A02F04D040F266
:1003DC006B11824802F0B3F8814B5B6803F00C039D
:1003EC00042B0CD07E4B5B6803F00C03082B12D152
:1003FC007B4B5B6803F48033B3F5803F0BD1784BB8
:10040C001B6803F40033002B6CD07B685B68002BFB
:10041C0068D1012300E37B685B68B3F5803F06D1AC
:10042C006F4B1B686E4A43F4803313602EE07B687D
:10043C005B68002B0CD16A4B1B68694A23F4803330
:10044C001360674B1B68664A23F4802313601DE01E
:10045C007B685B68B3F5A02F0CD1614B1B68604ABD
:10046C0043F4802313605E4B1B685D4A43F4803376
:10047C0013600BE05A4B1B68594A23F4803313600A
:10048C00574B1B68564A23F4802313607B685B68C8
:10049C00002B13D0FFF752FF386108E0FFF74EFF37
:1004AC0002463B69D31A642B01D90323B4E24C4BAB
:1004BC001B6803F40033002BF0D014E0FFF73EFF71
:1004CC00386108E0FFF73AFF02463B69D31A642B08
:1004DC0001D90323A0E2424B1B6803F40033002B29
:1004EC00F0D100E000BF7B681B6803F00203002B17
:1004FC0000F080807B681B69002B08D07B681B692F
:10050C00012B04D040F29F11344802F018F87B689C
:10051C005B691F2B04D94FF4D071304802F00FF8EF
:10052C002F4B5B6803F00C03002B0BD02C4B5B6840
:10053C0003F00C03082B1CD1294B5B6803F48033AC
:10054C00002B16D1264B1B6803F00203002B05D0A1
:10055C007B681B69012B01D001235DE2204B1B68DA
:10056C0023F0F8027B685B69DB001D4913430B60C9
:10057C0040E07B681B69002B20D01A4B01221A60CB
:10058C00FFF7DCFE386108E0FFF7D8FE02463B6956
:10059C00D31A022B01D903233EE2114B1B6803F043
:1005AC000203002BF0D00E4B1B6823F0F8027B6883
:1005BC005B69DB000A4913430B601BE0094B00220B
:1005CC001A60FFF7BBFE38610EE0FFF7B7FE02467C
:1005DC003B69D31A022B07D903231DE2802800089C
:1005EC0000100240000042427D4B1B6803F00203E6
:1005FC00002BEAD17B681B6803F00803002B40D06A
:10060C007B689B69002B08D07B689B69012B04D00D
:10061C004FF4F071734801F092FF7B689B69002BDB
:10062C0019D0714B01221A60FFF788FE386108E07F
:10063C00FFF784FE02463B69D31A022B01D9032330
:10064C00EAE1674B5B6A03F00203002BF0D0012058
:10065C0000F0D0FB15E0644B00221A60FFF76EFE31
:10066C00386108E0FFF76AFE02463B69D31A022B99
:10067C0001D90323D0E15A4B5B6A03F00203002B30
:10068C00F0D17B681B6803F00403002B00F0BF80E3
:10069C000023FB757B68DB68002B0CD07B68DB6868
:1006AC00012B08D07B68DB68052B04D040F20F21AE
:1006BC004C4801F044FF4A4BDB6903F08053002B9C
:1006CC000DD1474BDB69464A43F08053D361444B11
:1006DC00DB6903F08053BB60BB680123FB75434BA4
:1006EC001B6803F48073002B18D1404B1B683F4AE6
:1006FC0043F480731360FFF721FE386108E0FFF7C5
:10070C001DFE02463B69D31A642B01D9032383E1F6
:10071C00364B1B6803F48073002BF0D07B68DB68CE
:10072C00012B06D12E4B1B6A2D4A43F00103136299
:10073C002DE07B68DB68002B0CD1294B1B6A284A07
:10074C0023F001031362264B1B6A254A23F0040392
:10075C0013621CE07B68DB68052B0CD1204B1B6AF9
:10076C001F4A43F0040313621D4B1B6A1C4A43F0DF
:10077C00010313620BE01A4B1B6A194A23F00103A5
:10078C001362174B1B6A164A23F0040313627B682F
:10079C00DB68002B15D0FFF7D1FD38610AE0FFF7BD
:1007AC00CDFD02463B69D31A41F28832934201D9FE
:1007BC00032331E10A4B1B6A03F00203002BEED03A
:1007CC001CE0FFF7BBFD386112E0FFF7B7FD0246F6
:1007DC003B69D31A41F28832934209D903231BE1B6
:1007EC000010024080280008800442420070004043
:1007FC008B4B1B6A03F00203002BE6D1FB7D012B14
:10080C0005D1874BDB69864A23F08053D3617B6823
:10081C00DB69002B0CD07B68DB69012B08D07B6873
:10082C00DB69022B04D040F2AD217E4801F087FE3B
:10083C007B68DB69002B00F0EE80794B5B6803F082
:10084C000C03082B00F0CE807B68DB69022B40F098
:10085C00B2807B681B6A002B09D07B681B6AB3F5DE
:10086C00803F04D040F2B6216E4801F068FE7B68F0
:10087C005B6A002B4AD07B685B6AB3F5802F45D04E
:10088C007B685B6AB3F5002F40D07B685B6AB3F57D
:10089C00402F3BD07B685B6AB3F5801F36D07B68FA
:1008AC005B6AB3F5A01F31D07B685B6AB3F5C01FE0
:1008BC002CD07B685B6AB3F5E01F27D07B685B6A42
:1008CC00B3F5001F22D07B685B6AB3F5101F1DD0F7
:1008DC007B685B6AB3F5201F18D07B685B6AB3F545
:1008EC00301F13D07B685B6AB3F5401F0ED07B685A
:1008FC005B6AB3F5501F09D07B685B6AB3F5601F68
:10090C0004D040F2B721474801F019FE464B0022B3
:10091C001A60FFF713FD386108E0FFF70FFD024680
:10092C003B69D31A022B01D9032375E03C4B1B689E
:10093C0003F00073002BF0D17B681B6AB3F5803F8A
:10094C0016D17B689B68002B09D07B689B68B3F53C
:10095C00003F04D040F2CD21324801F0F0FD304B85
:10096C005B6823F400327B689B682D4913434B6012
:10097C002B4B5B6823F474127B68196A7B685B6A87
:10098C000B43274913434B60274B01221A60FFF797
:10099C00D5FC386108E0FFF7D1FC02463B69D31A5D
:1009AC00022B01D9032337E01D4B1B6803F00073A6
:1009BC00002BF0D02FE01C4B00221A60FFF7BEFC7E
:1009CC00386108E0FFF7BAFC02463B69D31A022BE8
:1009DC0001D9032320E0124B1B6803F00073002B9A
:1009EC00F0D118E07B68DB69012B01D1012313E006
:1009FC000B4B5B68FB60FB6803F480327B681B6A03
:100A0C009A4206D1FB6803F470127B685B6A9A42C7
:100A1C0001D0012300E0002318461837BD4680BDE5
:100A2C0000100240802800086000424280B584B06B
:100A3C0000AF786039607B68002B01D1012376E12F
:100A4C007B681B6803F00103002B16D17B681B68C5
:100A5C0003F00203002B10D17B681B6803F0040326
:100A6C00002B0AD17B681B6803F00803002B04D110
:100A7C0040F23631744801F062FD3B68002B0AD01D
:100A8C003B68012B07D03B68022B04D040F2373176
:100A9C006D4801F054FD6D4B1B6803F007033A6879
:100AAC009A4210D9694B1B6823F0070267493B68CF
:100ABC0013430B60654B1B6803F007033A689A42BB
:100ACC0001D0012333E17B681B6803F00203002B88
:100ADC0049D07B681B6803F00403002B05D05C4BEA
:100AEC005B685B4A43F4E06353607B681B6803F00C
:100AFC000803002B05D0564B5B68554A43F46053F2
:100B0C0053607B689B68002B24D07B689B68802B90
:100B1C0020D07B689B68902B1CD07B689B68A02B9B
:100B2C0018D07B689B68B02B14D07B689B68C02B5B
:100B3C0010D07B689B68D02B0CD07B689B68E02B1B
:100B4C0008D07B689B68F02B04D040F25D313E48A6
:100B5C0001F0F5FC3E4B5B6823F0F0027B689B6870
:100B6C003B4913434B607B681B6803F00103002B6C
:100B7C0051D07B685B68002B0CD07B685B68012BC9
:100B8C0008D07B685B68022B04D04FF459712E4857
:100B9C0001F0D5FC7B685B68012B07D12C4B1B68E3
:100BAC0003F40033002B15D10123C0E07B685B6894
:100BBC00022B07D1264B1B6803F00073002B09D1C5
:100BCC000123B4E0224B1B6803F00203002B01D17C
:100BDC000123ACE01E4B5B6823F003027B685B686F
:100BEC001B4913434B60FFF7A9FBF8600AE0FFF7C2
:100BFC00A5FB0246FB68D31A41F28832934201D915
:100C0C00032394E0124B5B6803F00C027B685B6877
:100C1C009B009A42EBD10D4B1B6803F007033A681B
:100C2C009A4217D2094B1B6823F0070207493B680D
:100C3C0013430B60054B1B6803F007033A689A4299
:100C4C0008D0012373E000BF802800080020024078
:100C5C00001002407B681B6803F00403002B25D0B6
:100C6C007B68DB68002B18D07B68DB68B3F5806F82
:100C7C0013D07B68DB68B3F5A06F0ED07B68DB68A4
:100C8C00B3F5C06F09D07B68DB68B3F5E06F04D0B7
:100C9C0040F2A231284801F052FC284B5B6823F447
:100CAC00E0627B68DB68254913434B607B681B68FB
:100CBC0003F00803002B26D07B681B69002B18D08F
:100CCC007B681B69B3F5806F13D07B681B69B3F528
:100CDC00A06F0ED07B681B69B3F5C06F09D07B6821
:100CEC001B69B3F5E06F04D040F2A931124801F052
:100CFC0026FC124B5B6823F460527B681B69DB009B
:100D0C000E4913434B6000F021F802460B4B5B6815
:100D1C001B0903F00F030A49CB5C22FA03F3094ABF
:100D2C001360094B1B681846FFF7C6FA00231846D8
:100D3C001037BD4680BD00BF80280008001002405F
:100D4C004C2A0008000000200400002080B487B06A
:100D5C0000AF0023FB600023BB6000237B610023FA
:100D6C007B6000233B611E4B5B68FB60FB6803F000
:100D7C000C03042B02D0082B03D027E0194B3B614A
:100D8C0027E0FB689B0C03F00F03174AD35C7B60D6
:100D9C00FB6803F48033002B10D0114B5B685B0CA9
:100DAC0003F00103114AD35CBB607B680D4A03FB63
:100DBC0002F2BB68B2FBF3F37B6104E07B680C4A84
:100DCC0002FB03F37B617B693B6102E0054B3B61FA
:100DDC0000BF3B6918461C37BD4680BC704700BF3E
:100DEC000010024000127A005C2A00086C2A0008ED
:100DFC0000093D0080B485B000AF78600A4B1B68D9
:100E0C000A4AA2FB03235B0A7A6802FB03F3FB602A
:100E1C0000BFFB685A1EFA60002BF9D100BF00BF5F
:100E2C001437BD4680BC704700000020D34D6210C3
:100E3C0080B58AB000AF7860396000237B620023F4
:100E4C003B627B68964A934213D07B68954A9342E7
:100E5C000FD07B68944A93420BD07B68934A9342A1
:100E6C0007D07B68924A934203D0BD21914801F090
:100E7C0066FB3B681B689BB2002B04D03B681B686D
:100E8C00B3F5803F03D3BE218A4801F058FB3B6881
:100E9C005B68002B00F01D823B685B68012B00F047
:100EAC0018823B685B68112B00F013823B685B680F
:100EBC00022B00F00E823B685B68122B00F009825B
:100ECC003B685B687C4A934200F003823B685B683A
:100EDC007A4A934200F0FD813B685B68784A934202
:100EEC0000F0F7813B685B68764A934200F0F18131
:100EFC003B685B68744A934200F0EB813B685B682B
:100F0C00724A934200F0E5813B685B68032B00F06A
:100F1C00E081BF21674801F012FBDAE101227B6A14
:100F2C0002FA03F3FB613B681B68FA691340BB616F
:100F3C00BA69FB699A4240F0C9817B68584A93426E
:100F4C0013D07B68574A93420FD07B68564A934222
:100F5C000BD07B68554A934207D07B68544A934226
:100F6C0003D0CD21534801F0EAFA3B685B68574A3D
:100F7C00934200F0C280554A934200F2E880504AF6
:100F8C00934200F0BA804E4A934200F2E0804E4AFF
:100F9C00934200F0B2804C4A934200F2D880474A08
:100FAC00934200F0AA80454A934200F2D080454A11
:100FBC00934200F0A280434A934200F2C880122B65
:100FCC002CD8122B00F2C38001A252F823F000BFE0
:100FDC000711000831100008831000085511000893
:100FEC005B1100085B1100085B1100085B11000825
:100FFC005B1100085B1100085B1100085B11000815
:10100C005B1100085B1100085B1100085B11000804
:10101C005B11000859100008DD100008264A9342A5
:10102C006BD094E03B68DB68022B0BD03B68DB6831
:10103C00012B07D03B68DB68032B03D0D5211D485F
:10104C0001F07DFA3B68DB683B6281E03B68DB6862
:10105C00022B0BD03B68DB68012B07D03B68DB68AD
:10106C00032B03D0DC21134801F069FA3B68DB68E1
:10107C0004333B626CE03B68DB68022B0BD03B68B3
:10108C00DB68012B07D03B68DB68032B03D0E32123
:10109C00084801F054FA3B68DB6808333B6257E0C0
:1010AC0000080140000C01400010014000140140F8
:1010BC0000180140DC28000800001110000021106D
:1010CC00000031100000121000002210000032103D
:1010DC003B68DB68022B0BD03B68DB68012B07D02D
:1010EC003B68DB68032B03D0EA21804801F027FA28
:1010FC003B68DB680C333B622AE03B689B68002B47
:10110C000BD03B689B68012B07D03B689B68022B7C
:10111C0003D0F721754801F012FA3B689B68002B4D
:10112C0002D104233B6213E03B689B68012B05D181
:10113C0008233B627B68FA691A6109E008233B6269
:10114C007B68FA695A6103E000233B6200E000BF50
:10115C00BB69FF2B01D87B6801E07B6804337B61A2
:10116C00BB69FF2B02D87B6A9B0002E07B6A083BC1
:10117C009B003B617B691A680F213B6901FA03F301
:10118C00DB431A40396A3B6901FA03F31A437B6962
:10119C001A603B685B6803F08053002B00F096806C
:1011AC00534B9B69524A43F001039361504B9B692B
:1011BC0003F00103BB60BB684E4A7B6A9B08023399
:1011CC0052F82330FB607B6A03F003039B000F2271
:1011DC0002FA03F3DB43FA681340FB607B68464A70
:1011EC00934213D07B68454A93420DD07B68444AA6
:1011FC00934207D07B68434A934201D1032306E014
:10120C00042304E0022302E0012300E000237A6AB5
:10121C0002F0030292009340FA681343FB603549D5
:10122C007B6A9B080233FA6841F823203B685B68B1
:10123C0003F48013002B06D0334B9A683249BB69F8
:10124C0013438B6006E0304B9A68BB69DB432E4935
:10125C0013408B603B685B6803F40013002B06D0D3
:10126C00294BDA682849BB691343CB6006E0264B4F
:10127C00DA68BB69DB4324491340CB603B685B688D
:10128C0003F40033002B06D01F4B5A681E49BB6970
:10129C0013434B6006E01C4B5A68BB69DB431A498D
:1012AC0013404B603B685B6803F48033002B06D023
:1012BC00154B1A681449BB6913430B6006E0124BBB
:1012CC001A68BB69DB43104913400B607B6A01331E
:1012DC007B623B681A687B6A22FA03F3002B7FF46B
:1012EC001DAE00BF00BF2837BD4680BDDC280008FE
:1012FC00001002400000014000080140000C0140B9
:10130C0000100140001401400004014080B582B07F
:10131C0000AF78600B467B8013467B707B88002B7C
:10132C0004D14FF4EA710E4801F009F97B78002BD7
:10133C0007D07B78012B04D040F2D511084801F07E
:10134C00FEF87B78002B03D07A887B681A6103E067
:10135C007B881A047B681A6100BF0837BD4680BDC4
:10136C00DC28000880B485B000AF78607B6803F09F
:10137C000703FB600C4BDB68BB60BA684FF6FF03DE
:10138C001340BB60FB681A02BB68134343F0BF6396
:10139C0043F40033BB60044ABB68D36000BF14370E
:1013AC00BD4680BC704700BF00ED00E080B400AFCC
:1013BC00044BDB681B0A03F007031846BD4680BCD0
:1013CC00704700BF00ED00E080B483B000AF03466F
:1013DC00FB7197F90730002B0BDBFB7903F01F0235
:1013EC00064997F907305B09012000FA02F241F82F
:1013FC00232000BF0C37BD4680BC704700E100E0E5
:10140C0080B483B000AF03463960FB7197F90730A5
:10141C00002B0ADB3B68DAB20C4997F90730120152
:10142C00D2B20B4483F800230AE03B68DAB20849D5
:10143C00FB7903F00F03043B1201D2B20B441A7672
:10144C0000BF0C37BD4680BC704700BF00E100E018
:10145C0000ED00E080B489B000AFF860B9607A604C
:10146C00FB6803F00703FB61FB69C3F10703042B63
:10147C0028BF0423BB61FB690433062B02D9FB692B
:10148C00033B00E000237B614FF0FF32BB6902FAA3
:10149C0003F3DA43BB681A407B699A404FF0FF3183
:1014AC007B6901FA03F3D9437B680B40134318465D
:1014BC002437BD4680BC704780B582B000AF7860E1
:1014CC007B68013BB3F1807F01D301230FE00A4A13
:1014DC007B68013B53600F214FF0FF30FFF790FF0B
:1014EC00054B00229A60044B07221A600023184611
:1014FC000837BD4680BD00BF10E000E080B582B06B
:10150C0000AF78607B68072B0FD07B68062B0CD064
:10151C007B68052B09D07B68042B06D07B68032BDA
:10152C0003D09121044801F00AF87868FFF71AFFFC
:10153C0000BF0837BD4680BD3829000880B586B08D
:10154C0000AF0346B9607A60FB7300237B617B6854
:10155C000F2B03D9A9210E4800F0F1FFBB680F2B0C
:10156C0003D9AA210A4800F0EAFFFFF71FFF7861B0
:10157C007A68B9687869FFF76DFF024697F90F3002
:10158C0011461846FFF73CFF00BF1837BD4680BD1B
:10159C003829000880B582B000AF0346FB7197F97B
:1015AC000730002B03DABD21054800F0C8FF97F97E
:1015BC0007301846FFF708FF00BF0837BD4680BD4F
:1015CC003829000880B582B000AF78607868FFF7E2
:1015DC0073FF034618460837BD4680BD80B582B000
:1015EC0000AF78607B68002B01D10123A1E07B6800
:1015FC001B68524A934213D07B681B68B3F1804F2F
:10160C000ED07B681B684E4A934209D07B681B68DE
:10161C004C4A934204D040F213114B4800F08FFF18
:10162C007B689B68002B14D07B689B68102B10D0B8
:10163C007B689B68202B0CD07B689B68402B08D068
:10164C007B689B68602B04D04FF48A713E4800F095
:10165C0076FF7B681B69002B0ED07B681B69B3F58A
:10166C00807F09D07B681B69B3F5007F04D040F202
:10167C001511354800F063FF7B68DB68002B04D044
:10168C007B68DB68B3F5803F04D34FF48B712E4835
:10169C0000F055FF7B689B69002B08D07B689B6929
:1016AC00802B04D040F21711274800F048FF7B68CC
:1016BC0093F83D30DBB2002B06D17B68002283F817
:1016CC003C20786800F0FAFF7B68022283F83D200A
:1016DC007B681A687B6804331946104600F068FC76
:1016EC007B68012283F846207B68012283F83E2028
:1016FC007B68012283F83F207B68012283F840201D
:10170C007B68012283F841207B68012283F8422008
:10171C007B68012283F843207B68012283F84420F4
:10172C007B68012283F845207B68012283F83D20E9
:10173C00002318460837BD4680BD00BF002C014071
:10174C0000040040000800409429000880B584B0D3
:10175C0000AF78607B681B682E4A934213D07B687D
:10176C001B68B3F1804F0ED07B681B682A4A9342EA
:10177C0009D07B681B68294A934204D04FF4E87166
:10178C00274800F0DCFE7B6893F83D30DBB2012B80
:10179C0001D001233AE07B68022283F83D207B686C
:1017AC001B68DA687B681B6842F00102DA607B68B0
:1017BC001B68184A93420ED07B681B68B3F1804FAC
:1017CC0009D07B681B68144A934204D07B681B6861
:1017DC00124A934211D17B681B689B6803F0070384
:1017EC00FB60FB68062B10D07B681B681A687B6853
:1017FC001B6842F001021A6007E07B681B681A68DC
:10180C007B681B6842F001021A60002318461037EF
:10181C00BD4680BD002C0140000400400008004083
:10182C009429000880B584B000AF78607B681B6891
:10183C00DB68FB607B681B681B69BB60BB6803F0E3
:10184C000203002B20D0FB6803F00203002B1BD0FB
:10185C007B681B686FF002021A617B6801221A77A1
:10186C007B681B689B6903F00303002B03D078682B
:10187C0000F083FB05E0786800F076FB786800F0F8
:10188C0085FB7B6800221A77BB6803F00403002BEE
:10189C0020D0FB6803F00403002B1BD07B681B6873
:1018AC006FF004021A617B6802221A777B681B684E
:1018BC009B6903F44073002B03D0786800F05DFB48
:1018CC0005E0786800F050FB786800F05FFB7B68FF
:1018DC0000221A77BB6803F00803002B20D0FB68AA
:1018EC0003F00803002B1BD07B681B686FF0080209
:1018FC001A617B6804221A777B681B68DB6903F02A
:10190C000303002B03D0786800F037FB05E0786800
:10191C0000F02AFB786800F039FB7B6800221A770C
:10192C00BB6803F01003002B20D0FB6803F01003FE
:10193C00002B1BD07B681B686FF010021A617B6850
:10194C0008221A777B681B68DB6903F44073002B51
:10195C0003D0786800F011FB05E0786800F004FB18
:10196C00786800F013FB7B6800221A77BB6803F0E1
:10197C000103002B0CD0FB6803F00103002B07D0F4
:10198C007B681B686FF001021A61786800F0D0FE6A
:10199C00BB6803F08003002B0CD0FB6803F08003C2
:1019AC00002B07D07B681B686FF080021A61786887
:1019BC0000F0B5FCBB6803F04003002B0CD0FB68B7
:1019CC0003F04003002B07D07B681B686FF04002CC
:1019DC001A61786800F0E3FABB6803F02003002B6F
:1019EC000CD0FB6803F02003002B07D07B681B682E
:1019FC006FF020021A61786800F088FC00BF103785
:101A0C00BD4680BD80B584B000AF786039600023DE
:101A1C00FB737B6893F83C30012B01D1022396E2D7
:101A2C007B68012283F83C207B68022283F83D20EE
:101A3C003B681B68B3F5805F29D03B681B68702B33
:101A4C0025D03B681B68B3F5005F20D03B681B6852
:101A5C00402B1CD03B681B68502B18D03B681B6874
:101A6C00602B14D03B681B68002B10D03B681B68A4
:101A7C00102B0CD03B681B68202B08D03B681B68D4
:101A8C00302B04D041F2C2416B4800F058FD7B680A
:101A9C001B689B68BB60BB6823F07703BB60BB68AB
:101AAC0023F47F43BB607B681B68BA689A603B6811
:101ABC001B68B3F5005F00F0C780B3F5005F00F260
:101ACC003982B3F5805F2DD0B3F5805F00F232829E
:101ADC00702B45D0702B00F22D82602B00F06781AB
:101AEC00602B00F22782502B00F01581502B00F256
:101AFC002182402B00F0B081402B00F21B82302B56
:101B0C0000F0F681302B00F21582202B00F0F081D2
:101B1C00202B00F20F82002B00F0EA81102B00F03A
:101B2C00E78107E27B681B68444A934200F0058218
:101B3C007B681B68B3F1804F00F0FF817B681B68EA
:101B4C003F4A934200F0F9817B681B683D4A9342FF
:101B5C0000F0F38141F2CE41374800F0F0FCECE1AB
:101B6C007B681B68354A934213D07B681B68B3F1C2
:101B7C00804F0ED07B681B68314A934209D07B683A
:101B8C001B68304A934204D041F2D5412A4800F0F8
:101B9C00D6FC3B689B68002B13D03B689B68B3F565
:101BAC00805F0ED03B689B68B3F5005F09D03B6843
:101BBC009B68B3F5405F04D041F2D8411E4800F059
:101BCC00BEFC3B685B68B3F5004F14D03B685B68A8
:101BDC00002B10D03B685B68002B0CD03B685B681B
:101BEC00022B08D03B685B680A2B04D041F2D94128
:101BFC00114800F0A4FC3B68DB680F2B04D941F2C0
:101C0C00DA410D4800F09BFC7B6818683B689968CA
:101C1C003B685A683B68DB6800F0AFFA7B681B686E
:101C2C009B68BB60BB6843F07703BB607B681B6839
:101C3C00BA689A6082E100BF94290008002C014028
:101C4C0000040040000800407B681B687E4A9342F9
:101C5C0013D07B681B68B3F1804F0ED07B681B6878
:101C6C007A4A934209D07B681B68794A934204D024
:101C7C0041F2ED41774800F062FC3B689B68002B19
:101C8C0013D03B689B68B3F5805F0ED03B689B68B4
:101C9C00B3F5005F09D03B689B68B3F5405F04D097
:101CAC0041F2F0416B4800F04AFC3B685B68B3F5CD
:101CBC00004F14D03B685B68002B10D03B685B680E
:101CCC00002B0CD03B685B68022B08D03B685B6830
:101CDC000A2B04D041F2F1415E4800F030FC3B6825
:101CEC00DB680F2B04D941F2F2415A4800F027FC73
:101CFC007B6818683B6899683B685A683B68DB6886
:101D0C0000F03BFA7B681B689A687B681B6842F49E
:101D1C0080429A6012E17B681B684B4A934213D055
:101D2C007B681B68B3F1804F0ED07B681B68474AF9
:101D3C00934209D07B681B68454A934204D041F218
:101D4C000151444800F0FBFB3B685B68B3F5004F66
:101D5C0014D03B685B68002B10D03B685B68002B91
:101D6C000CD03B685B68022B08D03B685B680A2B85
:101D7C0004D041F20451374800F0E1FB3B68DB68CA
:101D8C000F2B04D941F20551324800F0D8FB7B6887
:101D9C0018683B6859683B68DB681A4600F076F9AE
:101DAC007B681B685021184600F0CDF9C6E07B68B3
:101DBC001B68254A934213D07B681B68B3F1804F94
:101DCC000ED07B681B68214A934209D07B681B6844
:101DDC001F4A934204D041F211511E4800F0AFFB50
:101DEC003B685B68B3F5004F14D03B685B68002B15
:101DFC0010D03B685B68002B0CD03B685B68022BF7
:101E0C0008D03B685B680A2B04D041F2145111488E
:101E1C0000F095FB3B68DB680F2B04D941F21551A0
:101E2C000C4800F08CFB7B6818683B6859683B6871
:101E3C00DB681A4600F058F97B681B68602118466D
:101E4C0000F081F97AE000BF002C01400004004052
:101E5C0000080040942900087B681B683E4A9342A6
:101E6C0013D07B681B68B3F1804F0ED07B681B6866
:101E7C003A4A934209D07B681B68394A934204D092
:101E8C0041F22151374800F05AFB3B685B68B3F5CF
:101E9C00004F14D03B685B68002B10D03B685B682C
:101EAC00002B0CD03B685B68022B08D03B685B684E
:101EBC000A2B04D041F224512A4800F040FB3B6825
:101ECC00DB680F2B04D941F22551264800F037FB73
:101EDC007B6818683B6859683B68DB681A4600F0F9
:101EEC00D5F87B681B684021184600F02CF925E0DA
:101EFC007B681B68184A934213D07B681B68B3F14C
:101F0C00804F0ED07B681B68144A934209D07B68C3
:101F1C001B68134A934204D041F23451114800F02B
:101F2C000EFB7B681A683B681B681946104600F06C
:101F3C000AF903E00123FB7300E000BF7B68012278
:101F4C0083F83D207B68002283F83C20FB7B1846FD
:101F5C001037BD4680BD00BF002C0140000400407E
:101F6C00000800409429000880B483B000AF78606A
:101F7C0000BF0C37BD4680BC704780B483B000AF47
:101F8C00786000BF0C37BD4680BC704780B483B00E
:101F9C0000AF786000BF0C37BD4680BC704780B482
:101FAC0083B000AF786000BF0C37BD4680BC704773
:101FBC0080B485B000AF786039607B681B68FB60CB
:101FCC007B682F4A93420BD07B68B3F1804F07D0CC
:101FDC007B682C4A934203D07B682B4A934208D1EE
:101FEC00FB6823F07003FB603B685B68FA68134383
:101FFC00FB607B68224A93420BD07B68B3F1804F25
:10200C0007D07B681F4A934203D07B681E4A9342D9
:10201C0008D1FB6823F44073FB603B68DB68FA680B
:10202C001343FB60FB6823F080023B685B6913433E
:10203C00FB607B68FA681A603B689A687B68DA62B6
:10204C003B681A687B689A627B680D4A934203D19D
:10205C003B681A697B681A637B6801225A617B684A
:10206C001B6903F00103002B05D07B681B6923F06F
:10207C0001027B681A6100BF1437BD4680BC7047F3
:10208C00002C0140000400400008004080B487B0E0
:10209C0000AFF860B9607A60FB681B6A7B61FB6813
:1020AC001B6A23F00102FB681A62FB689B693B61A7
:1020BC003B6923F0F0033B617B681B013A691343D6
:1020CC003B617B6923F00A037B617A69BB6813432C
:1020DC007B61FB683A699A61FB687A691A6200BF96
:1020EC001C37BD4680BC704780B487B000AFF86029
:1020FC00B9607A60FB681B6A7B61FB681B6A23F022
:10210C001002FB681A62FB689B693B613B6923F414
:10211C0070433B617B681B033A6913433B617B69EA
:10212C0023F0A0037B61BB681B017A6913437B61BD
:10213C00FB683A699A61FB687A691A6200BF1C37BE
:10214C00BD4680BC704780B485B000AF7860396004
:10215C007B689B68FB60FB6823F07003FB603A684C
:10216C00FB68134343F00703FB607B68FA689A60D3
:10217C0000BF1437BD4680BC704780B487B000AF39
:10218C00F860B9607A603B60FB689B687B617B6937
:10219C0023F47F437B613B681A027B681A43BB685C
:1021AC0013437A6913437B61FB687A699A6000BFB9
:1021BC001C37BD4680BC704780B584B000AF7860DA
:1021CC0039607B681B684D4A934213D07B681B684F
:1021DC00B3F1804F0ED07B681B68494A934209D0FB
:1021EC007B681B68474A934204D040F2A971464869
:1021FC0000F0A5F93B681B68002B20D03B681B68DE
:10220C00102B1CD03B681B68202B18D03B681B681C
:10221C00302B14D03B681B68402B10D03B681B68DC
:10222C00502B0CD03B681B68602B08D03B681B689C
:10223C00702B04D040F2AA71334800F080F93B684F
:10224C005B68802B08D03B685B68002B04D040F2A5
:10225C00AB712D4800F073F97B6893F83C30012B7F
:10226C0001D1022346E07B68012283F83C207B6885
:10227C00022283F83D207B681B685B68FB607B68EF
:10228C001B689B68BB60FB6823F07003FB603B68BA
:10229C001B68FA681343FB607B681B68FA685A601A
:1022AC007B681B68154A93420ED07B681B68B3F1A0
:1022BC00804F09D07B681B68114A934204D07B681D
:1022CC001B68104A93420CD1BB6823F08003BB609F
:1022DC003B685B68BA681343BB607B681B68BA6871
:1022EC009A607B68012283F83D207B68002283F88A
:1022FC003C20002318461037BD4680BD002C014001
:10230C000004004000080040F029000880B483B0AD
:10231C0000AF786000BF0C37BD4680BC704780B4FE
:10232C0083B000AF786000BF0C37BD4680BC7047EF
:10233C0080B58AB000AF07F1140300221A605A600E
:10234C009A60DA60404B9B693F4A43F010039361FB
:10235C003D4B9B6903F010033B613B693A4B9B6916
:10236C00394A43F020039361374B9B6903F02003F8
:10237C00FB60FB68344B9B69334A43F00403936165
:10238C00314B9B6903F00403BB60BB682E4B9B690C
:10239C002D4A43F0080393612B4B9B6903F0080310
:1023AC007B607B6800224FF400512848FEF7AEFF9B
:1023BC004FF400537B610123BB610023FB610223BB
:1023CC003B6207F1140319462048FEF731FD4FF428
:1023DC0040437B610323BB6107F1140319461B487F
:1023EC00FEF726FD03237B610323BB6107F1140376
:1023FC0019461748FEF71CFD49F6FF737B61032352
:10240C00BB6107F1140319461248FEF711FD4FF694
:10241C00FF737B610323BB6107F1140319460E485C
:10242C00FEF706FD0D4B5B687B627B6A43F0E06355
:10243C007B627B6A43F400437B62084A7B6A53608D
:10244C0000BF2837BD4680BD00100240001001407F
:10245C000014014000080140000C01400000014044
:10246C0080B500AF094B0A4A1A60084B04225A6027
:10247C00064B40F2E2429A600448FDF78DFE03469B
:10248C00002B01D000F055F800BF80BD2C000020BF
:10249C000030004080B500AFFDF7F8FE00F00CF8FE
:1024AC00FFF746FFFFF7DCFF00F0BCF800F02AF95D
:1024BC0000F034F900BFFDE780B590B000AF07F134
:1024CC00180328220021184600F06DF93B1D00224C
:1024DC001A605A609A60DA601A610A23BB610123A0
:1024EC00BB621023FB6201233B6300237B6307F178
:1024FC0018031846FDF72CFF0346002B01D000F003
:10250C0018F80F237B600023BB600023FB600023C3
:10251C003B6100237B613B1D00211846FEF786FAC8
:10252C000346002B01D000F004F800BF4037BD4635
:10253C0080BD80B400AF72B600BF00BFFDE780B4B1
:10254C0083B000AF7860396000BF0C37BD4680BCEB
:10255C007047000080B485B000AF154B9B69144ADE
:10256C0043F001039361124B9B6903F00103BB60C1
:10257C00BB680F4BDB690E4A43F08053D3610C4BA5
:10258C00DB6903F080537B607B680A4B5B68FB6004
:10259C00FB6823F0E063FB60FB6843F00073FB60B7
:1025AC00044AFB68536000BF1437BD4680BC7047BB
:1025BC00001002400000014080B400AF00BFFDE7F6
:1025CC0080B400AF00BFFDE780B400AF00BFFDE7F3
:1025DC0080B400AF00BFFDE780B400AF00BFFDE7E3
:1025EC0080B400AF00BFBD4680BC704780B400AF64
:1025FC0000BFBD4680BC704780B400AF00BFBD4675
:10260C0080BC704780B500AFFDF786FE00BF80BD73
:10261C0080B500AF0248FFF705F900BF80BD00BFD1
:10262C003800002080B586B000AF07F10803002207
:10263C001A605A609A60DA603B4600221A605A604F
:10264C001D4B4FF080421A601B4B47225A601A4BAD
:10265C0000229A60184B40F2E732DA60164B0022E7
:10266C001A61154B00229A611348FEF7B7FF034617
:10267C00002B01D0FFF75DFF4FF48053BB6007F1D7
:10268C00080319460C48FFF7BDF90346002B01D08F
:10269C00FFF74FFF00233B6000237B603B4619464E
:1026AC000548FFF789FD0346002B01D0FFF741FFDA
:1026BC0000BF1837BD4680BD3800002080B584B0FF
:1026CC0000AF78607B681B68B3F1804F13D10C4B63
:1026DC00DB690B4A43F00103D361094BDB6903F05F
:1026EC000103FB60FB68002200211C20FEF726FF83
:1026FC001C20FEF74FFF00BF1037BD4680BD00BF4A
:10270C000010024080B500AF00224FF40051024887
:10271C00FEF7FCFD00BF80BD0010014080B500AF8E
:10272C000248FFF713F800BF80BD00BF380000203F
:10273C0080B483B000AF78607B681B68B3F1804FC6
:10274C0004D1054B1B680133034A136000BF0C37DF
:10275C00BD4680BC704700BF80000020FDF716FD11
:10276C000B480C490C4A002302E0D458C4500433E3
:10277C00C4188C42F9D3094A094C002301E01360B8
:10278C000432A242FBD300F017F8FFF783FE704728
:10279C00000000200C000020782A00080C0000200B
:1027AC0084000020FEE703460244934200D17047A8
:1027BC0003F8011BF9E7000070B500260C4D0D4B1A
:1027CC005B1B9C10A64209D1002600F019F80A4D9B
:1027DC000A4B5B1B9C10A64205D170BD55F8043BFF
:1027EC0098470136EEE755F8043B98470136F2E777
:1027FC00702A0008702A0008702A0008742A000841
:10280C00F8B500BFF8BC08BC9E467047F8B500BFD1
:08281C00F8BC08BC9E467047A1
:10282400433A2F55736572732F6C757368612F6407
:1028340069616E6B6F6E672F726D636F64652F7461
:102844006573742F447269766572732F53544D33D4
:1028540032463178785F48414C5F447269766572DC
:102864002F5372632F73746D3332663178785F68D7
:10287400616C5F697764672E63000000433A2F55EB
:10288400736572732F6C757368612F6469616E6B05
:102894006F6E672F726D636F64652F746573742F29
:1028A400447269766572732F53544D3332463178CE
:1028B400785F48414C5F4472697665722F53726346
:1028C4002F73746D3332663178785F68616C5F7230
:1028D40063632E6300000000433A2F5573657273DF
:1028E4002F6C757368612F6469616E6B6F6E672FEF
:1028F400726D636F64652F746573742F44726976A7
:102904006572732F53544D3332463178785F4841A2
:102914004C5F4472697665722F5372632F73746DC2
:102924003332663178785F68616C5F6770696F2EE7
:1029340063000000433A2F55736572732F6C7573EF
:1029440068612F6469616E6B6F6E672F726D636F60
:1029540064652F746573742F447269766572732F7E
:1029640053544D3332463178785F48414C5F44725A
:10297400697665722F5372632F73746D33326631C7
:1029840078785F68616C5F636F727465782E63003A
:10299400433A2F55736572732F6C757368612F6496
:1029A40069616E6B6F6E672F726D636F64652F74F0
:1029B4006573742F447269766572732F53544D3363
:1029C40032463178785F48414C5F4472697665726B
:1029D4002F5372632F73746D3332663178785F6866
:1029E400616C5F74696D2E6300000000433A2F55DB
:1029F400736572732F6C757368612F6469616E6B94
:102A04006F6E672F726D636F64652F746573742FB7
:102A1400447269766572732F53544D33324631785C
:102A2400785F48414C5F4472697665722F537263D4
:102A34002F73746D3332663178785F68616C5F74BC
:102A4400696D5F65782E63000000000000000000DF
:102A5400010203040607080902030405060708091E
:0C2A64000A0B0C0D0E0F101001020000F8
:042A700075010008E4
:042A74004D01000808
:0C2A780000127A001000000001000000B5
:04000005080027695F
:00000001FF
